:040000000200A43224
:03000B00020147A8
:0100130032BA
:01001B0032B2
:0100230032AA
:01002B0032A2
:01003300329A
:01003B003292
:01004300328A
:01004B003282
:01005300327A
:03005B0002026F2F
:200060000000E2FBEAF2802C0000E0FBEAF08024E6B50202EBF62200E2B50202EBF2220086
:20008000E0B50202EBF02230F6E0A88220F5D3EAC6F582228B822230F6E6A88220F5D98096
:0100A000CF90
:2000FD00E4F519F51A752511752622752733752844752955752A66752B77752C88752D9957
:17011D00752EAA752FBB7530CC7531DD7532EE7533FFF5340200A123
:0300A10002057DD8
:20013400438901758A30758CF8D28C308DFDC28CC28D22C0E0C007C006C0D075D000050ECA
:20015400E4B50E02050FAE0EAF0FC3EE944BEF94004008751501E4F50EF50F0508E4B508D5
:20017400020509AE08AF09C3EE94E8EF94034008751301E4F508F509050CE4B50C02050DC0
:20019400AE0CAF0DC3EE9401EF9400401DE4F50CF50DA2AF9200C2AF75C7AA75C7557591F7
:2001B40000A20092AFD2EE751401758CF8758A30D0D0D006D007D0E0327500017501007546
:2001D40002647503007504D07505077506647507007500017500017500017500012253B10A
:2001F400FB43B204229000327403F09000337401F022900052E4F0A3F0900038F090003899
:20021400E075F002A4FEAFF02400F582EF3400F583E0FCA3E0FD900052E0FAA3E0FBC3EAC9
:200234009CEB9D5017EE2400F582EF3400F583E0FEA3E0FF900052EEF0EFA3F0900038E0B1
:200254002401F0E0FFBF190040B3900052E0C0E0A3E0C0E0D083D082020BACC0E0C082C046
:2002740083C007C006C005C004C0D075D000A2AF9200C2AF75C7AA75C755759100A20092F7
:20029400AFC2EF900051E0706A90004FE0FEA3E0FFC3EE9419EF9400504290004FE0FEA33D
:2002B400E0FF90004F74012EF0E43FA3F0EE2EFEEF33FFEE2400F582EF3400F583AEC3E46F
:2002D400CEC4CE6ECE54F0CE6EFFACC253040F7D00EC4206ED4207EEF0EFA3F090004FE015
:2002F400FEA3E0FFC3EE9419EF940040069000517401F0D0D0D004D005D006D007D083D0E4
:2003140082D0E032AF8253B37F43B4807E00C296EF30E004D2978002C29700EFC313FFD285
:20033400960EBE080040E753B37F53B47F22C295120318D29522AF82758244C00712034254
:20035400D007C29574C04FF582120318853582120318D29522AD82AE83AFF07C00EC2DF9B5
:20037400E43EFA8F0389828A838BF0120C2C900CF893FBE5366006BC0603430380EC2CF5A3
:20039400828B35C007C006C005C00412034AD004D005D006D0070CBC080040C1227E007F4C
:2003B4000043B38053B47F7D00EFC313CE13CEFFC296900002C007C006C005120474D005A2
:2003D400D006D00730970D8E044304808C067F00C2828002D282D2960DBD080040CB53B3B9
:2003F4007F53B47F8E828F83227E007F00C295900005C007C006120474758242120318D06A
:2004140006D007754000C007C0061203B1AC82AD83D006D0078540F005F08006EC2CFCEDA7
:2004340033FDD5F0F7EC4206ED4207054074FC254050D3D2958E828F832275C7AA75C755F3
:20045400439F0175C7AA75C75543A5012275C7AA75C75553A5FE75C7AA75C755539FFE222D
:20047400AE82AF837C007D00C3EC9EED9F50147AE87B031ABAFF011BEA4B70F70CBC00E8B5
:200494000D80E522AE82AF838EA68FA775AEFF75AF2275C7AA75C75575A401E5A470FC22D8
:2004B400AE82AF838EA68FA7854AAE75AF2175C7AA75C75575A401E5A470FC22AE82AF8390
:2004D4007D00C3ED953A50358D047B00EC2EFCEB3FFBED2537F8E43538F9AA3988828983BC
:2004F4008AF0120C2CF54A8C828B83C007C006C0051204B4D005D006D0070D80C522AE8287
:20051400AF838EA68FA775AF0075C7AA75C75575A401E5A470FC85AE8222AE82AF837D00CB
:20053400C3ED953E5042ED253BFAE4353CFBAC3D8D0189007900E82EF582E93FF583C0078E
:20055400C006C005C004C003C002120512A982D002D003D004D005D006D0078A828B838CBE
:20057400F0E9120A720D80B8221201F21200001201CD1201F95389F0438901758CF8758A05
:2005940030D2A9D2AFD28C53B3DF43B42053B3BF43B44053B37F53B47FD295D296D297750D
:2005B4008289120342758240120342C2957582C01203187516007517007582FF12031805BD
:2005D4001774F0251750F29003E8120474751700758200120318051774F0251750F29003C8
:2005F400E8120474051674FD251650CAD295E4F510F5111200007403B50006750004120867
:200614000D7403B5000C7500041203FD8582108583117403B5002A7500049000337402F0CE
:2006340043B12053B2DF43F61053E8F043E80453E1CF53E1F843E10543E880D2AED2AFD235
:20065400EE7403B500AD750004900051E07003020754900033E0FFBF02028003020754125E
:200674000206AC82AD83AEF0FF900039ECF0EDA3F0EEA3F0EFA3F0C007C006C005C004C065
:2006940004C005C006C00790000075F08C7442120A8DAB82E58124FCF581D004D005D00668
:2006B400D007EB7003020739C004C005C006C0079054CA75F0C1743B12096EAC82AD83AE81
:2006D400F0FFE58124FCF581749AC0E014C0E0C0E0743EC0E08C828D838EF0EF12093AAC3B
:2006F40082AD83AEF0FFE58124FCF581C004C005C006C00790000075F020744112096EAC86
:2007140082AD83AEF0FFE58124FCF5818C828D838EF0EF120BB8E5828583F0900034F0E522
:20073400F0A3F08007900034E4F0A3F090004FE4F0A3F0900051F09000327403F002060721
:20075400900051E07003020607900033E0FFBF01028003020607120206AC82AD83AEF0FF37
:20077400900039ECF0EDA3F0EEA3F0EFA3F0C004C005C006C00790FDF475F054743E120920
:200794006EAC82AD83AEF0FFE58124FCF581740AC0E074D7C0E074A3C0E0743FC0E08C82BF
:2007B4008D838EF0EF12093AAC82AD83AEF0FFE58124FCF5818C828D838EF0EF120BB8AE4E
:2007D40082AF83900036EEF0EFA3F0C3EE9464EF94005007900036E4F0A3F090004FE4F0C8
:2007F400A3F0900051F0900039F0A3F0A3F0A3F09000327403F0020607AE10AF1190003693
:20081400EEF0EFA3F0754AE8754B038E828F83C007C006120945AC82D006D00775F00AECB5
:2008340084ACF08C41754A64754B008E828F83C007C006120945754A0A754B00120ABDABB8
:2008540082D006D0078B43754A0A754B008E828F83C007C006120945754A0A754B00120A4A
:20087400BDAA82D006D0078A45754A0A754B008E828F83120ABDAE828E47900034E0FDA332
:20089400E0FFC3ED9464EF9400501B75490A8D0675F00AEE8475F00A84AEF08D0275F00A04
:2008B400EA84AAF08059754A64754B008D828F83C007C005120945754A0A754B00120ABDF1
:2008D400AB82D005D0078B49754A0A754B008D828F83C007C005120945754A0A754B001226
:2008F4000ABDAB82D005D0078B06754A0A754B008D828F83C006120ABDAD82D0068D02AC2A
:20091400418C1BAB438B1CAF458F1DAF478F1E751F0BAF498F208E218A2275360190001B0B
:0609340075F040020369AA
:200CDB000A0B0C0D0E0F101112131415161718191A1B1C1D1E1F202122232425263F065BA1
:200CFB004F666D7D077F6F00777C395E79713D76301E753855545C7367506D783E1C1D6434
:0E0D1B006E5B80400000000000000000000041
:0B093A00A8811818C6B2E7C6020B0A1D
:200945007A10E4FBFCE58225E0F582E58333F583EB33FBEC33FCEB954AF5F0EC954B400642
:09096500FCABF0438201DADD2253
:20096E00120A11BC0003020BE4EF60FA30D502B2D1E583B4FF03020BFAE582B4FF03020B6A
:20098E00FA258340072482400B020BE42483145003020BFAF582EA8DF0A4A8F0EA8EF0A443
:2009AE0028F8E435F0F9EB8DF0A428E935F0F9E433CA8FF0A429F9EA35F0FAEBF88EF0A498
:2009CE0029F9EA35F0FAE433FBEC8DF0A429F9EA35F0FAE43BFBE88FF0A42AFAEB35F0FB40
:2009EE00E433CCFD8EF0A42AFAEB35F0FBE43CFCED8FF0A42BFBEC35F0FC20E703120A3FF4
:030A0E00020BC315
:200A1100AA82AB83A2F73392D1F5826002D2F7ACF0E58124F9F8E6FD08E6FE0886F008E648
:0E0A3100A2F73392D5F5836002D2F7AFF02220
:0600D300E478FFF6D8FD01
:200A3F007804EC7011E58224F8500AF582E4C9CACBFCD8EF22EC7820058220E713D58201B6
:130A5F0022C3E933F9EA33FAEB33FBEC33FCD8EA158222C4
:2000B1007909E94400601B7A01900D20784F75A000E493F2A308B8000205A0D9F4DAF27570
:0200D100A0FF8E
:1B0A720020F71130F6138883A88220F509F6A8837583002280FEF280F5F02283
:200A8D00FFA8811818120B81D2D133E6400730E70B7582002220E70675820122C2D1120B3E
:100AAD0063E97003F5822220D101B3E433F582228C
:200ABD00E54A454B60467A01E54A25E0F54AE54B334012F54BE582954AE583954B40030AF6
:200ADD0080E6C3E54B13F54BE54A13F54AC3E582954AF5F0E583954B4005F58385F082C31F
:0D0AFD00E54B13F54BE54A13F54ADAE1220B
:200B0A00120A117900E583B58202800D5003120C12E583C39582120C5BE5D0C465D020E10A
:200B2A0017EA2DFAEB3EFBEC3FFC50097401120C5BEC4480FC020BC3C3EA9DFAEB9EFBECC1
:190B4A009FFC500FC3E499F9E49AFAE49BFBE49CFCB2D1120A3F020BC343
:2000D9007800E84400600A790075A000E4F309D8FC784FE84400600C7901900000E4F0A3D7
:0400F900D8FCD9FA5C
:200B63007901AA82E68F82B5821318E6B5F00E18E6B5830918E68A82B58202790022B48089
:200B83000FE5F0700AE5837006E58270027F00EFB6801518B6001018B6000B18B6000608F1
:090BA30008087600220808082267
:0C0BAC00E4AC83AB82FAF9748E020C51A9
:0B0BB8007F8E120CA0F58385F08222D6
:200BC300B98003EA13B34010EA2401FAE43BFBE43CFC50047C800582BC000EBB000BBA0076
:200BE30008E4F5F0F583F58222A2D1E582138CF092F78B838A8222E4F583F58275F080F436
:0F0C0300A2D11322E4F583F58275F0C0747F222D
:1A0C1200E582C583F582A2D133A2D592D11392D5ECCFFCEBCEFBEACDFA226A
:0D00A40075814B120CC5E58260030200A1BE
:1C0C2C0020F71430F6148883A88220F507E6A88375830022E280F7E49322E022D7
:130C4800FCABF0AA83A982749EC2D1F582120A3F020BC363
:200C5B006040F82582500274FFF582E824F8501ECCCBCAF9E4CC24F85014CBCAF9E4CB24A1
:200C7B00F8500BCAF9E4CA24F8500379002224086010F8C3EC13FCEB13FBEA13FAE913F954
:030C9B00D8F1226B
:200C9E007F9E120CC930D103020BE4C3EF9582500974FFF5F0F583F582227900120C5B8937
:070CBE00828A838BF0EC2217
:040CC5007582002212
:120CC900AA82AB83A2F73392D1F5826002D2F7ACF02230
:00000001FF
